{
  "_format": "hh-sol-artifact-1",
  "contractName": "BlueCarbonRegistry",
  "sourceName": "contracts/BlueCarbonRegistry.sol",
  "abi": [
    {
      "inputs": [
        {
          "internalType": "address",
          "name": "admin",
          "type": "address"
        }
      ],
      "stateMutability": "nonpayable",
      "type": "constructor"
    },
    {
      "inputs": [],
      "name": "AccessControlBadConfirmation",
      "type": "error"
    },
    {
      "inputs": [
        {
          "internalType": "address",
          "name": "account",
          "type": "address"
        },
        {
          "internalType": "bytes32",
          "name": "neededRole",
          "type": "bytes32"
        }
      ],
      "name": "AccessControlUnauthorizedAccount",
      "type": "error"
    },
    {
      "inputs": [
        {
          "internalType": "address",
          "name": "sender",
          "type": "address"
        },
        {
          "internalType": "uint256",
          "name": "tokenId",
          "type": "uint256"
        },
        {
          "internalType": "address",
          "name": "owner",
          "type": "address"
        }
      ],
      "name": "ERC721IncorrectOwner",
      "type": "error"
    },
    {
      "inputs": [
        {
          "internalType": "address",
          "name": "operator",
          "type": "address"
        },
        {
          "internalType": "uint256",
          "name": "tokenId",
          "type": "uint256"
        }
      ],
      "name": "ERC721InsufficientApproval",
      "type": "error"
    },
    {
      "inputs": [
        {
          "internalType": "address",
          "name": "approver",
          "type": "address"
        }
      ],
      "name": "ERC721InvalidApprover",
      "type": "error"
    },
    {
      "inputs": [
        {
          "internalType": "address",
          "name": "operator",
          "type": "address"
        }
      ],
      "name": "ERC721InvalidOperator",
      "type": "error"
    },
    {
      "inputs": [
        {
          "internalType": "address",
          "name": "owner",
          "type": "address"
        }
      ],
      "name": "ERC721InvalidOwner",
      "type": "error"
    },
    {
      "inputs": [
        {
          "internalType": "address",
          "name": "receiver",
          "type": "address"
        }
      ],
      "name": "ERC721InvalidReceiver",
      "type": "error"
    },
    {
      "inputs": [
        {
          "internalType": "address",
          "name": "sender",
          "type": "address"
        }
      ],
      "name": "ERC721InvalidSender",
      "type": "error"
    },
    {
      "inputs": [
        {
          "internalType": "uint256",
          "name": "tokenId",
          "type": "uint256"
        }
      ],
      "name": "ERC721NonexistentToken",
      "type": "error"
    },
    {
      "inputs": [
        {
          "internalType": "address",
          "name": "owner",
          "type": "address"
        }
      ],
      "name": "OwnableInvalidOwner",
      "type": "error"
    },
    {
      "inputs": [
        {
          "internalType": "address",
          "name": "account",
          "type": "address"
        }
      ],
      "name": "OwnableUnauthorizedAccount",
      "type": "error"
    },
    {
      "anonymous": false,
      "inputs": [
        {
          "indexed": true,
          "internalType": "address",
          "name": "owner",
          "type": "address"
        },
        {
          "indexed": true,
          "internalType": "address",
          "name": "approved",
          "type": "address"
        },
        {
          "indexed": true,
          "internalType": "uint256",
          "name": "tokenId",
          "type": "uint256"
        }
      ],
      "name": "Approval",
      "type": "event"
    },
    {
      "anonymous": false,
      "inputs": [
        {
          "indexed": true,
          "internalType": "address",
          "name": "owner",
          "type": "address"
        },
        {
          "indexed": true,
          "internalType": "address",
          "name": "operator",
          "type": "address"
        },
        {
          "indexed": false,
          "internalType": "bool",
          "name": "approved",
          "type": "bool"
        }
      ],
      "name": "ApprovalForAll",
      "type": "event"
    },
    {
      "anonymous": false,
      "inputs": [
        {
          "indexed": false,
          "internalType": "uint256",
          "name": "_fromTokenId",
          "type": "uint256"
        },
        {
          "indexed": false,
          "internalType": "uint256",
          "name": "_toTokenId",
          "type": "uint256"
        }
      ],
      "name": "BatchMetadataUpdate",
      "type": "event"
    },
    {
      "anonymous": false,
      "inputs": [
        {
          "indexed": true,
          "internalType": "uint256",
          "name": "projectId",
          "type": "uint256"
        },
        {
          "indexed": true,
          "internalType": "address",
          "name": "to",
          "type": "address"
        },
        {
          "indexed": false,
          "internalType": "uint256",
          "name": "amount",
          "type": "uint256"
        }
      ],
      "name": "CreditsMinted",
      "type": "event"
    },
    {
      "anonymous": false,
      "inputs": [
        {
          "indexed": true,
          "internalType": "uint256",
          "name": "evidenceId",
          "type": "uint256"
        },
        {
          "indexed": true,
          "internalType": "uint256",
          "name": "projectId",
          "type": "uint256"
        },
        {
          "indexed": false,
          "internalType": "bytes32",
          "name": "evidenceHash",
          "type": "bytes32"
        },
        {
          "indexed": false,
          "internalType": "string",
          "name": "evidenceURI",
          "type": "string"
        },
        {
          "indexed": false,
          "internalType": "address",
          "name": "uploader",
          "type": "address"
        }
      ],
      "name": "EvidenceUploaded",
      "type": "event"
    },
    {
      "anonymous": false,
      "inputs": [
        {
          "indexed": true,
          "internalType": "uint256",
          "name": "evidenceId",
          "type": "uint256"
        },
        {
          "indexed": true,
          "internalType": "uint256",
          "name": "projectId",
          "type": "uint256"
        },
        {
          "indexed": false,
          "internalType": "address",
          "name": "verifier",
          "type": "address"
        },
        {
          "indexed": false,
          "internalType": "uint256",
          "name": "receiptTokenId",
          "type": "uint256"
        }
      ],
      "name": "EvidenceVerified",
      "type": "event"
    },
    {
      "anonymous": false,
      "inputs": [
        {
          "indexed": false,
          "internalType": "uint256",
          "name": "_tokenId",
          "type": "uint256"
        }
      ],
      "name": "MetadataUpdate",
      "type": "event"
    },
    {
      "anonymous": false,
      "inputs": [
        {
          "indexed": true,
          "internalType": "address",
          "name": "previousOwner",
          "type": "address"
        },
        {
          "indexed": true,
          "internalType": "address",
          "name": "newOwner",
          "type": "address"
        }
      ],
      "name": "OwnershipTransferred",
      "type": "event"
    },
    {
      "anonymous": false,
      "inputs": [
        {
          "indexed": true,
          "internalType": "uint256",
          "name": "projectId",
          "type": "uint256"
        },
        {
          "indexed": true,
          "internalType": "address",
          "name": "owner",
          "type": "address"
        },
        {
          "indexed": false,
          "internalType": "string",
          "name": "name",
          "type": "string"
        },
        {
          "indexed": false,
          "internalType": "string",
          "name": "metadataURI",
          "type": "string"
        }
      ],
      "name": "ProjectRegistered",
      "type": "event"
    },
    {
      "anonymous": false,
      "inputs": [
        {
          "indexed": true,
          "internalType": "uint256",
          "name": "tokenId",
          "type": "uint256"
        },
        {
          "indexed": true,
          "internalType": "uint256",
          "name": "evidenceId",
          "type": "uint256"
        },
        {
          "indexed": true,
          "internalType": "address",
          "name": "to",
          "type": "address"
        }
      ],
      "name": "ReceiptMinted",
      "type": "event"
    },
    {
      "anonymous": false,
      "inputs": [
        {
          "indexed": true,
          "internalType": "uint256",
          "name": "tokenId",
          "type": "uint256"
        },
        {
          "indexed": true,
          "internalType": "address",
          "name": "owner",
          "type": "address"
        }
      ],
      "name": "ReceiptRetired",
      "type": "event"
    },
    {
      "anonymous": false,
      "inputs": [
        {
          "indexed": true,
          "internalType": "bytes32",
          "name": "role",
          "type": "bytes32"
        },
        {
          "indexed": true,
          "internalType": "bytes32",
          "name": "previousAdminRole",
          "type": "bytes32"
        },
        {
          "indexed": true,
          "internalType": "bytes32",
          "name": "newAdminRole",
          "type": "bytes32"
        }
      ],
      "name": "RoleAdminChanged",
      "type": "event"
    },
    {
      "anonymous": false,
      "inputs": [
        {
          "indexed": true,
          "internalType": "bytes32",
          "name": "role",
          "type": "bytes32"
        },
        {
          "indexed": true,
          "internalType": "address",
          "name": "account",
          "type": "address"
        },
        {
          "indexed": true,
          "internalType": "address",
          "name": "sender",
          "type": "address"
        }
      ],
      "name": "RoleGranted",
      "type": "event"
    },
    {
      "anonymous": false,
      "inputs": [
        {
          "indexed": true,
          "internalType": "bytes32",
          "name": "role",
          "type": "bytes32"
        },
        {
          "indexed": true,
          "internalType": "address",
          "name": "account",
          "type": "address"
        },
        {
          "indexed": true,
          "internalType": "address",
          "name": "sender",
          "type": "address"
        }
      ],
      "name": "RoleRevoked",
      "type": "event"
    },
    {
      "anonymous": false,
      "inputs": [
        {
          "indexed": true,
          "internalType": "address",
          "name": "from",
          "type": "address"
        },
        {
          "indexed": true,
          "internalType": "address",
          "name": "to",
          "type": "address"
        },
        {
          "indexed": true,
          "internalType": "uint256",
          "name": "tokenId",
          "type": "uint256"
        }
      ],
      "name": "Transfer",
      "type": "event"
    },
    {
      "stateMutability": "payable",
      "type": "fallback"
    },
    {
      "inputs": [],
      "name": "DEFAULT_ADMIN_ROLE",
      "outputs": [
        {
          "internalType": "bytes32",
          "name": "",
          "type": "bytes32"
        }
      ],
      "stateMutability": "view",
      "type": "function"
    },
    {
      "inputs": [],
      "name": "VERIFIER_ROLE",
      "outputs": [
        {
          "internalType": "bytes32",
          "name": "",
          "type": "bytes32"
        }
      ],
      "stateMutability": "view",
      "type": "function"
    },
    {
      "inputs": [
        {
          "internalType": "address",
          "name": "verifier",
          "type": "address"
        }
      ],
      "name": "addVerifier",
      "outputs": [],
      "stateMutability": "nonpayable",
      "type": "function"
    },
    {
      "inputs": [
        {
          "internalType": "address",
          "name": "to",
          "type": "address"
        },
        {
          "internalType": "uint256",
          "name": "tokenId",
          "type": "uint256"
        }
      ],
      "name": "approve",
      "outputs": [],
      "stateMutability": "nonpayable",
      "type": "function"
    },
    {
      "inputs": [
        {
          "internalType": "address",
          "name": "owner",
          "type": "address"
        }
      ],
      "name": "balanceOf",
      "outputs": [
        {
          "internalType": "uint256",
          "name": "",
          "type": "uint256"
        }
      ],
      "stateMutability": "view",
      "type": "function"
    },
    {
      "inputs": [],
      "name": "carbonToken",
      "outputs": [
        {
          "internalType": "contract CarbonToken",
          "name": "",
          "type": "address"
        }
      ],
      "stateMutability": "view",
      "type": "function"
    },
    {
      "inputs": [
        {
          "internalType": "uint256",
          "name": "",
          "type": "uint256"
        }
      ],
      "name": "evidences",
      "outputs": [
        {
          "internalType": "uint256",
          "name": "projectId",
          "type": "uint256"
        },
        {
          "internalType": "bytes32",
          "name": "evidenceHash",
          "type": "bytes32"
        },
        {
          "internalType": "string",
          "name": "evidenceURI",
          "type": "string"
        },
        {
          "internalType": "address",
          "name": "uploader",
          "type": "address"
        },
        {
          "internalType": "bool",
          "name": "verified",
          "type": "bool"
        },
        {
          "internalType": "uint256",
          "name": "timestamp",
          "type": "uint256"
        },
        {
          "internalType": "uint256",
          "name": "receiptTokenId",
          "type": "uint256"
        }
      ],
      "stateMutability": "view",
      "type": "function"
    },
    {
      "inputs": [
        {
          "internalType": "uint256",
          "name": "tokenId",
          "type": "uint256"
        }
      ],
      "name": "getApproved",
      "outputs": [
        {
          "internalType": "address",
          "name": "",
          "type": "address"
        }
      ],
      "stateMutability": "view",
      "type": "function"
    },
    {
      "inputs": [
        {
          "internalType": "uint256",
          "name": "evidenceId",
          "type": "uint256"
        }
      ],
      "name": "getEvidence",
      "outputs": [
        {
          "internalType": "uint256",
          "name": "projectId",
          "type": "uint256"
        },
        {
          "internalType": "bytes32",
          "name": "evidenceHash",
          "type": "bytes32"
        },
        {
          "internalType": "string",
          "name": "evidenceURI",
          "type": "string"
        },
        {
          "internalType": "address",
          "name": "uploader",
          "type": "address"
        },
        {
          "internalType": "bool",
          "name": "verified",
          "type": "bool"
        },
        {
          "internalType": "uint256",
          "name": "timestamp",
          "type": "uint256"
        },
        {
          "internalType": "uint256",
          "name": "receiptTokenId",
          "type": "uint256"
        }
      ],
      "stateMutability": "view",
      "type": "function"
    },
    {
      "inputs": [
        {
          "internalType": "uint256",
          "name": "projectId",
          "type": "uint256"
        }
      ],
      "name": "getProject",
      "outputs": [
        {
          "internalType": "string",
          "name": "name",
          "type": "string"
        },
        {
          "internalType": "string",
          "name": "location",
          "type": "string"
        },
        {
          "internalType": "uint256",
          "name": "area",
          "type": "uint256"
        },
        {
          "internalType": "address",
          "name": "ownerAddr",
          "type": "address"
        },
        {
          "internalType": "string",
          "name": "metadataURI",
          "type": "string"
        },
        {
          "internalType": "bool",
          "name": "exists",
          "type": "bool"
        },
        {
          "internalType": "uint256",
          "name": "totalIssued",
          "type": "uint256"
        }
      ],
      "stateMutability": "view",
      "type": "function"
    },
    {
      "inputs": [
        {
          "internalType": "bytes32",
          "name": "role",
          "type": "bytes32"
        }
      ],
      "name": "getRoleAdmin",
      "outputs": [
        {
          "internalType": "bytes32",
          "name": "",
          "type": "bytes32"
        }
      ],
      "stateMutability": "view",
      "type": "function"
    },
    {
      "inputs": [
        {
          "internalType": "bytes32",
          "name": "role",
          "type": "bytes32"
        },
        {
          "internalType": "address",
          "name": "account",
          "type": "address"
        }
      ],
      "name": "grantRole",
      "outputs": [],
      "stateMutability": "nonpayable",
      "type": "function"
    },
    {
      "inputs": [
        {
          "internalType": "bytes32",
          "name": "role",
          "type": "bytes32"
        },
        {
          "internalType": "address",
          "name": "account",
          "type": "address"
        }
      ],
      "name": "hasRole",
      "outputs": [
        {
          "internalType": "bool",
          "name": "",
          "type": "bool"
        }
      ],
      "stateMutability": "view",
      "type": "function"
    },
    {
      "inputs": [
        {
          "internalType": "address",
          "name": "owner",
          "type": "address"
        },
        {
          "internalType": "address",
          "name": "operator",
          "type": "address"
        }
      ],
      "name": "isApprovedForAll",
      "outputs": [
        {
          "internalType": "bool",
          "name": "",
          "type": "bool"
        }
      ],
      "stateMutability": "view",
      "type": "function"
    },
    {
      "inputs": [],
      "name": "name",
      "outputs": [
        {
          "internalType": "string",
          "name": "",
          "type": "string"
        }
      ],
      "stateMutability": "view",
      "type": "function"
    },
    {
      "inputs": [],
      "name": "owner",
      "outputs": [
        {
          "internalType": "address",
          "name": "",
          "type": "address"
        }
      ],
      "stateMutability": "view",
      "type": "function"
    },
    {
      "inputs": [
        {
          "internalType": "uint256",
          "name": "tokenId",
          "type": "uint256"
        }
      ],
      "name": "ownerOf",
      "outputs": [
        {
          "internalType": "address",
          "name": "",
          "type": "address"
        }
      ],
      "stateMutability": "view",
      "type": "function"
    },
    {
      "inputs": [
        {
          "internalType": "uint256",
          "name": "",
          "type": "uint256"
        }
      ],
      "name": "projects",
      "outputs": [
        {
          "internalType": "string",
          "name": "name",
          "type": "string"
        },
        {
          "internalType": "string",
          "name": "location",
          "type": "string"
        },
        {
          "internalType": "uint256",
          "name": "area",
          "type": "uint256"
        },
        {
          "internalType": "address",
          "name": "owner",
          "type": "address"
        },
        {
          "internalType": "string",
          "name": "metadataURI",
          "type": "string"
        },
        {
          "internalType": "bool",
          "name": "exists",
          "type": "bool"
        },
        {
          "internalType": "uint256",
          "name": "totalIssuedCredits",
          "type": "uint256"
        }
      ],
      "stateMutability": "view",
      "type": "function"
    },
    {
      "inputs": [
        {
          "internalType": "string",
          "name": "name",
          "type": "string"
        },
        {
          "internalType": "string",
          "name": "location",
          "type": "string"
        },
        {
          "internalType": "uint256",
          "name": "area",
          "type": "uint256"
        },
        {
          "internalType": "address",
          "name": "ownerAddr",
          "type": "address"
        },
        {
          "internalType": "string",
          "name": "metadataURI",
          "type": "string"
        }
      ],
      "name": "registerProject",
      "outputs": [
        {
          "internalType": "uint256",
          "name": "projectId",
          "type": "uint256"
        }
      ],
      "stateMutability": "nonpayable",
      "type": "function"
    },
    {
      "inputs": [
        {
          "internalType": "address",
          "name": "verifier",
          "type": "address"
        }
      ],
      "name": "removeVerifier",
      "outputs": [],
      "stateMutability": "nonpayable",
      "type": "function"
    },
    {
      "inputs": [],
      "name": "renounceOwnership",
      "outputs": [],
      "stateMutability": "nonpayable",
      "type": "function"
    },
    {
      "inputs": [
        {
          "internalType": "bytes32",
          "name": "role",
          "type": "bytes32"
        },
        {
          "internalType": "address",
          "name": "callerConfirmation",
          "type": "address"
        }
      ],
      "name": "renounceRole",
      "outputs": [],
      "stateMutability": "nonpayable",
      "type": "function"
    },
    {
      "inputs": [
        {
          "internalType": "address",
          "name": "tokenAddr",
          "type": "address"
        },
        {
          "internalType": "address",
          "name": "to",
          "type": "address"
        },
        {
          "internalType": "uint256",
          "name": "amount",
          "type": "uint256"
        }
      ],
      "name": "rescueERC20",
      "outputs": [],
      "stateMutability": "nonpayable",
      "type": "function"
    },
    {
      "inputs": [
        {
          "internalType": "uint256",
          "name": "tokenId",
          "type": "uint256"
        }
      ],
      "name": "retireReceipt",
      "outputs": [],
      "stateMutability": "nonpayable",
      "type": "function"
    },
    {
      "inputs": [
        {
          "internalType": "bytes32",
          "name": "role",
          "type": "bytes32"
        },
        {
          "internalType": "address",
          "name": "account",
          "type": "address"
        }
      ],
      "name": "revokeRole",
      "outputs": [],
      "stateMutability": "nonpayable",
      "type": "function"
    },
    {
      "inputs": [
        {
          "internalType": "address",
          "name": "from",
          "type": "address"
        },
        {
          "internalType": "address",
          "name": "to",
          "type": "address"
        },
        {
          "internalType": "uint256",
          "name": "tokenId",
          "type": "uint256"
        }
      ],
      "name": "safeTransferFrom",
      "outputs": [],
      "stateMutability": "nonpayable",
      "type": "function"
    },
    {
      "inputs": [
        {
          "internalType": "address",
          "name": "from",
          "type": "address"
        },
        {
          "internalType": "address",
          "name": "to",
          "type": "address"
        },
        {
          "internalType": "uint256",
          "name": "tokenId",
          "type": "uint256"
        },
        {
          "internalType": "bytes",
          "name": "data",
          "type": "bytes"
        }
      ],
      "name": "safeTransferFrom",
      "outputs": [],
      "stateMutability": "nonpayable",
      "type": "function"
    },
    {
      "inputs": [
        {
          "internalType": "address",
          "name": "operator",
          "type": "address"
        },
        {
          "internalType": "bool",
          "name": "approved",
          "type": "bool"
        }
      ],
      "name": "setApprovalForAll",
      "outputs": [],
      "stateMutability": "nonpayable",
      "type": "function"
    },
    {
      "inputs": [
        {
          "internalType": "address",
          "name": "tokenAddress",
          "type": "address"
        }
      ],
      "name": "setCarbonToken",
      "outputs": [],
      "stateMutability": "nonpayable",
      "type": "function"
    },
    {
      "inputs": [
        {
          "internalType": "bytes4",
          "name": "interfaceId",
          "type": "bytes4"
        }
      ],
      "name": "supportsInterface",
      "outputs": [
        {
          "internalType": "bool",
          "name": "",
          "type": "bool"
        }
      ],
      "stateMutability": "view",
      "type": "function"
    },
    {
      "inputs": [],
      "name": "symbol",
      "outputs": [
        {
          "internalType": "string",
          "name": "",
          "type": "string"
        }
      ],
      "stateMutability": "view",
      "type": "function"
    },
    {
      "inputs": [
        {
          "internalType": "uint256",
          "name": "tokenId",
          "type": "uint256"
        }
      ],
      "name": "tokenURI",
      "outputs": [
        {
          "internalType": "string",
          "name": "",
          "type": "string"
        }
      ],
      "stateMutability": "view",
      "type": "function"
    },
    {
      "inputs": [],
      "name": "totalProjects",
      "outputs": [
        {
          "internalType": "uint256",
          "name": "",
          "type": "uint256"
        }
      ],
      "stateMutability": "view",
      "type": "function"
    },
    {
      "inputs": [
        {
          "internalType": "address",
          "name": "from",
          "type": "address"
        },
        {
          "internalType": "address",
          "name": "to",
          "type": "address"
        },
        {
          "internalType": "uint256",
          "name": "tokenId",
          "type": "uint256"
        }
      ],
      "name": "transferFrom",
      "outputs": [],
      "stateMutability": "nonpayable",
      "type": "function"
    },
    {
      "inputs": [
        {
          "internalType": "address",
          "name": "newOwner",
          "type": "address"
        }
      ],
      "name": "transferOwnership",
      "outputs": [],
      "stateMutability": "nonpayable",
      "type": "function"
    },
    {
      "inputs": [
        {
          "internalType": "address",
          "name": "to",
          "type": "address"
        },
        {
          "internalType": "uint256",
          "name": "tokenId",
          "type": "uint256"
        }
      ],
      "name": "transferReceipt",
      "outputs": [],
      "stateMutability": "nonpayable",
      "type": "function"
    },
    {
      "inputs": [
        {
          "internalType": "uint256",
          "name": "projectId",
          "type": "uint256"
        },
        {
          "internalType": "string",
          "name": "metadataURI",
          "type": "string"
        }
      ],
      "name": "updateProjectMetadata",
      "outputs": [],
      "stateMutability": "nonpayable",
      "type": "function"
    },
    {
      "inputs": [
        {
          "internalType": "uint256",
          "name": "projectId",
          "type": "uint256"
        },
        {
          "internalType": "bytes32",
          "name": "evidenceHash",
          "type": "bytes32"
        },
        {
          "internalType": "string",
          "name": "evidenceURI",
          "type": "string"
        }
      ],
      "name": "uploadEvidence",
      "outputs": [
        {
          "internalType": "uint256",
          "name": "evidenceId",
          "type": "uint256"
        }
      ],
      "stateMutability": "nonpayable",
      "type": "function"
    },
    {
      "inputs": [
        {
          "internalType": "uint256",
          "name": "evidenceId",
          "type": "uint256"
        },
        {
          "internalType": "bool",
          "name": "mintReceipt",
          "type": "bool"
        },
        {
          "internalType": "string",
          "name": "receiptTokenURI",
          "type": "string"
        },
        {
          "internalType": "uint256",
          "name": "mintFungibleAmount",
          "type": "uint256"
        }
      ],
      "name": "verifyEvidenceAndIssue",
      "outputs": [
        {
          "internalType": "uint256",
          "name": "receiptTokenId",
          "type": "uint256"
        }
      ],
      "stateMutability": "nonpayable",
      "type": "function"
    },
    {
      "stateMutability": "payable",
      "type": "receive"
    }
  ],
  "bytecode": "0x608060405234801561001057600080fd5b506040516156d53803806156d58339818101604052810190610032919061058c565b806040518060400160405280601181526020017f426c7565436172626f6e526563656970740000000000000000000000000000008152506040518060400160405280600381526020017f424352000000000000000000000000000000000000000000000000000000000081525081600090816100ae9190610809565b5080600190816100be9190610809565b505050600073ffffffffffffffffffffffffffffffffffffffff168173ffffffffffffffffffffffffffffffffffffffff16036101335760006040517f1e4fbdf700000000000000000000000000000000000000000000000000000000815260040161012a91906108ea565b60405180910390fd5b6101428161019d60201b60201c565b506101566000801b8261026360201b60201c565b506101877f0ce23c3e399818cfee81a7ab0880f714e53d7672b08df0fa62f2843416e1ea098261026360201b60201c565b506101978161036160201b60201c565b50610905565b6000600860009054906101000a900473ffffffffffffffffffffffffffffffffffffffff16905081600860006101000a81548173ffffffffffffffffffffffffffffffffffffffff021916908373ffffffffffffffffffffffffffffffffffffffff1602179055508173ffffffffffffffffffffffffffffffffffffffff168173ffffffffffffffffffffffffffffffffffffffff167f8be0079c531659141344cd1fd0a4f28419497f9722a3daafe3b4186f6b6457e060405160405180910390a35050565b600061027583836103f360201b60201c565b6103565760016007600085815260200190815260200160002060000160008473ffffffffffffffffffffffffffffffffffffffff1673ffffffffffffffffffffffffffffffffffffffff16815260200190815260200160002060006101000a81548160ff0219169083151502179055506102f361045e60201b60201c565b73ffffffffffffffffffffffffffffffffffffffff168273ffffffffffffffffffffffffffffffffffffffff16847f2f8788117e7eff1d82e926ec794901d17c78024a50270940304540a733656f0d60405160405180910390a46001905061035b565b600090505b92915050565b61036f61046660201b60201c565b600073ffffffffffffffffffffffffffffffffffffffff168173ffffffffffffffffffffffffffffffffffffffff16036103e15760006040517f1e4fbdf70000000000000000000000000000000000000000000000000000000081526004016103d891906108ea565b60405180910390fd5b6103f08161019d60201b60201c565b50565b60006007600084815260200190815260200160002060000160008373ffffffffffffffffffffffffffffffffffffffff1673ffffffffffffffffffffffffffffffffffffffff16815260200190815260200160002060009054906101000a900460ff16905092915050565b600033905090565b61047461045e60201b60201c565b73ffffffffffffffffffffffffffffffffffffffff166104986104ff60201b60201c565b73ffffffffffffffffffffffffffffffffffffffff16146104fd576104c161045e60201b60201c565b6040517f118cdaa70000000000000000000000000000000000000000000000000000000081526004016104f491906108ea565b60405180910390fd5b565b6000600860009054906101000a900473ffffffffffffffffffffffffffffffffffffffff16905090565b600080fd5b600073ffffffffffffffffffffffffffffffffffffffff82169050919050565b60006105598261052e565b9050919050565b6105698161054e565b811461057457600080fd5b50565b60008151905061058681610560565b92915050565b6000602082840312156105a2576105a1610529565b5b60006105b084828501610577565b91505092915050565b600081519050919050565b7f4e487b7100000000000000000000000000000000000000000000000000000000600052604160045260246000fd5b7f4e487b7100000000000000000000000000000000000000000000000000000000600052602260045260246000fd5b6000600282049050600182168061063a57607f821691505b60208210810361064d5761064c6105f3565b5b50919050565b60008190508160005260206000209050919050565b60006020601f8301049050919050565b600082821b905092915050565b6000600883026106b57fffffffffffffffffffffffffffffffffffffffffffffffffffffffffffffffff82610678565b6106bf8683610678565b95508019841693508086168417925050509392505050565b6000819050919050565b6000819050919050565b60006107066107016106fc846106d7565b6106e1565b6106d7565b9050919050565b6000819050919050565b610720836106eb565b61073461072c8261070d565b848454610685565b825550505050565b600090565b61074961073c565b610754818484610717565b505050565b5b818110156107785761076d600082610741565b60018101905061075a565b5050565b601f8211156107bd5761078e81610653565b61079784610668565b810160208510156107a6578190505b6107ba6107b285610668565b830182610759565b50505b505050565b600082821c905092915050565b60006107e0600019846008026107c2565b1980831691505092915050565b60006107f983836107cf565b9150826002028217905092915050565b610812826105b9565b67ffffffffffffffff81111561082b5761082a6105c4565b5b6108358254610622565b61084082828561077c565b600060209050601f8311600181146108735760008415610861578287015190505b61086b85826107ed565b8655506108d3565b601f19841661088186610653565b60005b828110156108a957848901518255600182019150602085019450602081019050610884565b868310156108c657848901516108c2601f8916826107cf565b8355505b6001600288020188555050505b505050505050565b6108e48161054e565b82525050565b60006020820190506108ff60008301846108db565b92915050565b614dc1806109146000396000f3fe6080604052600436106102345760003560e01c80639000b3d61161012e578063c87b56dd116100ab578063e7705db61161006f578063e7705db6146108b9578063e985e9c5146108e4578063f0f3f2c814610921578063f2fde38b14610964578063f7f7229e1461098d57610235565b8063c87b56dd146107aa578063c956f143146107e7578063ca2dfd0a1461082a578063d547741f14610853578063e4a49b461461087c57610235565b8063a217fddf116100f2578063a217fddf146106db578063a22cb46514610706578063b2118a8d1461072f578063b88d4fde14610758578063c6bdee611461078157610235565b80639000b3d6146105f657806391546c341461061f57806391d148541461064857806395d89b41146106855780639c361e4e146106b057610235565b806336568abe116101bc578063715018a611610180578063715018a61461050f57806380aba8fe1461052657806382a71ef21461056357806383f8187c1461058e5780638da5cb5b146105cb57610235565b806336568abe1461041a57806340c808521461044357806342842e0e1461046c5780636352211e1461049557806370a08231146104d257610235565b8063107046bd11610203578063107046bd1461030557806323b872dd14610348578063248a9ca3146103715780632e4546cd146103ae5780632f2ff15d146103f157610235565b806301ffc9a71461023757806306fdde0314610274578063081812fc1461029f578063095ea7b3146102dc57610235565b5b005b34801561024357600080fd5b5061025e600480360381019061025991906139ad565b6109b6565b60405161026b91906139f5565b60405180910390f35b34801561028057600080fd5b506102896109c8565b6040516102969190613aa0565b60405180910390f35b3480156102ab57600080fd5b506102c660048036038101906102c19190613af8565b610a5a565b6040516102d39190613b66565b60405180910390f35b3480156102e857600080fd5b5061030360048036038101906102fe9190613bad565b610a76565b005b34801561031157600080fd5b5061032c60048036038101906103279190613af8565b610a8c565b60405161033f9796959493929190613bfc565b60405180910390f35b34801561035457600080fd5b5061036f600480360381019061036a9190613c80565b610c93565b005b34801561037d57600080fd5b5061039860048036038101906103939190613d09565b610d95565b6040516103a59190613d45565b60405180910390f35b3480156103ba57600080fd5b506103d560048036038101906103d09190613af8565b610db5565b6040516103e89796959493929190613d60565b60405180910390f35b3480156103fd57600080fd5b5061041860048036038101906104139190613dd6565b610eac565b005b34801561042657600080fd5b50610441600480360381019061043c9190613dd6565b610ece565b005b34801561044f57600080fd5b5061046a60048036038101906104659190613af8565b610f49565b005b34801561047857600080fd5b50610493600480360381019061048e9190613c80565b61100f565b005b3480156104a157600080fd5b506104bc60048036038101906104b79190613af8565b61102f565b6040516104c99190613b66565b60405180910390f35b3480156104de57600080fd5b506104f960048036038101906104f49190613e16565b611041565b6040516105069190613e43565b60405180910390f35b34801561051b57600080fd5b506105246110fb565b005b34801561053257600080fd5b5061054d60048036038101906105489190613f93565b61110f565b60405161055a9190613e43565b60405180910390f35b34801561056f57600080fd5b5061057861131a565b60405161058591906140c1565b60405180910390f35b34801561059a57600080fd5b506105b560048036038101906105b091906140dc565b611340565b6040516105c29190613e43565b60405180910390f35b3480156105d757600080fd5b506105e0611508565b6040516105ed9190613b66565b60405180910390f35b34801561060257600080fd5b5061061d60048036038101906106189190613e16565b611532565b005b34801561062b57600080fd5b506106466004803603810190610641919061414b565b61156d565b005b34801561065457600080fd5b5061066f600480360381019061066a9190613dd6565b6116d9565b60405161067c91906139f5565b60405180910390f35b34801561069157600080fd5b5061069a611744565b6040516106a79190613aa0565b60405180910390f35b3480156106bc57600080fd5b506106c56117d6565b6040516106d29190613e43565b60405180910390f35b3480156106e757600080fd5b506106f06117dc565b6040516106fd9190613d45565b60405180910390f35b34801561071257600080fd5b5061072d600480360381019061072891906141d3565b6117e3565b005b34801561073b57600080fd5b5061075660048036038101906107519190613c80565b6117f9565b005b34801561076457600080fd5b5061077f600480360381019061077a91906142b4565b611885565b005b34801561078d57600080fd5b506107a860048036038101906107a39190613e16565b6118aa565b005b3480156107b657600080fd5b506107d160048036038101906107cc9190613af8565b611965565b6040516107de9190613aa0565b60405180910390f35b3480156107f357600080fd5b5061080e60048036038101906108099190613af8565b611a78565b6040516108219796959493929190613d60565b60405180910390f35b34801561083657600080fd5b50610851600480360381019061084c9190613e16565b611c0d565b005b34801561085f57600080fd5b5061087a60048036038101906108759190613dd6565b611c48565b005b34801561088857600080fd5b506108a3600480360381019061089e9190614337565b611c6a565b6040516108b09190613e43565b60405180910390f35b3480156108c557600080fd5b506108ce612077565b6040516108db9190613d45565b60405180910390f35b3480156108f057600080fd5b5061090b600480360381019061090691906143ba565b61209b565b60405161091891906139f5565b60405180910390f35b34801561092d57600080fd5b5061094860048036038101906109439190613af8565b61212f565b60405161095b9796959493929190613bfc565b60405180910390f35b34801561097057600080fd5b5061098b60048036038101906109869190613e16565b6123d4565b005b34801561099957600080fd5b506109b460048036038101906109af9190613bad565b61245a565b005b60006109c182612525565b9050919050565b6060600080546109d790614429565b80601f0160208091040260200160405190810160405280929190818152602001828054610a0390614429565b8015610a505780601f10610a2557610100808354040283529160200191610a50565b820191906000526020600020905b815481529060010190602001808311610a3357829003601f168201915b5050505050905090565b6000610a658261259f565b50610a6f82612627565b9050919050565b610a888282610a83612664565b61266c565b5050565b600d602052806000526040600020600091509050806000018054610aaf90614429565b80601f0160208091040260200160405190810160405280929190818152602001828054610adb90614429565b8015610b285780601f10610afd57610100808354040283529160200191610b28565b820191906000526020600020905b815481529060010190602001808311610b0b57829003601f168201915b505050505090806001018054610b3d90614429565b80601f0160208091040260200160405190810160405280929190818152602001828054610b6990614429565b8015610bb65780601f10610b8b57610100808354040283529160200191610bb6565b820191906000526020600020905b815481529060010190602001808311610b9957829003601f168201915b5050505050908060020154908060030160009054906101000a900473ffffffffffffffffffffffffffffffffffffffff1690806004018054610bf790614429565b80601f0160208091040260200160405190810160405280929190818152602001828054610c2390614429565b8015610c705780601f10610c4557610100808354040283529160200191610c70565b820191906000526020600020905b815481529060010190602001808311610c5357829003601f168201915b5050505050908060050160009054906101000a900460ff16908060060154905087565b600073ffffffffffffffffffffffffffffffffffffffff168273ffffffffffffffffffffffffffffffffffffffff1603610d055760006040517f64a0ae92000000000000000000000000000000000000000000000000000000008152600401610cfc9190613b66565b60405180910390fd5b6000610d198383610d14612664565b61267e565b90508373ffffffffffffffffffffffffffffffffffffffff168173ffffffffffffffffffffffffffffffffffffffff1614610d8f578382826040517f64283d7b000000000000000000000000000000000000000000000000000000008152600401610d869392919061445a565b60405180910390fd5b50505050565b600060076000838152602001908152602001600020600101549050919050565b600e602052806000526040600020600091509050806000015490806001015490806002018054610de490614429565b80601f0160208091040260200160405190810160405280929190818152602001828054610e1090614429565b8015610e5d5780601f10610e3257610100808354040283529160200191610e5d565b820191906000526020600020905b815481529060010190602001808311610e4057829003601f168201915b5050505050908060030160009054906101000a900473ffffffffffffffffffffffffffffffffffffffff16908060030160149054906101000a900460ff16908060040154908060050154905087565b610eb582610d95565b610ebe81612898565b610ec883836128ac565b50505050565b610ed6612664565b73ffffffffffffffffffffffffffffffffffffffff168173ffffffffffffffffffffffffffffffffffffffff1614610f3a576040517f6697b23200000000000000000000000000000000000000000000000000000000815260040160405180910390fd5b610f44828261299e565b505050565b3373ffffffffffffffffffffffffffffffffffffffff16610f698261102f565b73ffffffffffffffffffffffffffffffffffffffff1614610fbf576040517f08c379a0000000000000000000000000000000000000000000000000000000008152600401610fb6906144dd565b60405180910390fd5b610fc881612a91565b3373ffffffffffffffffffffffffffffffffffffffff16817f675f826c7b38aa0548de6f37e8e4cf39a6f9a62f7bcd3828bcb6fc7be280233e60405160405180910390a350565b61102a83838360405180602001604052806000815250611885565b505050565b600061103a8261259f565b9050919050565b60008073ffffffffffffffffffffffffffffffffffffffff168273ffffffffffffffffffffffffffffffffffffffff16036110b45760006040517f89c62b640000000000000000000000000000000000000000000000000000000081526004016110ab9190613b66565b60405180910390fd5b600360008373ffffffffffffffffffffffffffffffffffffffff1673ffffffffffffffffffffffffffffffffffffffff168152602001908152602001600020549050919050565b611103612b17565b61110d6000612b9e565b565b6000611119612b17565b600073ffffffffffffffffffffffffffffffffffffffff168373ffffffffffffffffffffffffffffffffffffffff1603611188576040517f08c379a000000000000000000000000000000000000000000000000000000000815260040161117f90614549565b60405180910390fd5b6001600a546111979190614598565b90506040518060e001604052808781526020018681526020018581526020018473ffffffffffffffffffffffffffffffffffffffff1681526020018381526020016001151581526020016000815250600d6000838152602001908152602001600020600082015181600001908161120e919061476e565b506020820151816001019081611224919061476e565b506040820151816002015560608201518160030160006101000a81548173ffffffffffffffffffffffffffffffffffffffff021916908373ffffffffffffffffffffffffffffffffffffffff160217905550608082015181600401908161128b919061476e565b5060a08201518160050160006101000a81548160ff02191690831515021790555060c0820151816006015590505080600a819055508273ffffffffffffffffffffffffffffffffffffffff16817f182a3c36d70101c00c1251172cafd87f69e7e51caa24ab27ee82e181d0b5c3478885604051611309929190614840565b60405180910390a395945050505050565b600960009054906101000a900473ffffffffffffffffffffffffffffffffffffffff1681565b6000600d600085815260200190815260200160002060050160009054906101000a900460ff166113a5576040517f08c379a000000000000000000000000000000000000000000000000000000000815260040161139c906148c3565b60405180910390fd5b600b600081546113b4906148e3565b91905081905590506040518060e001604052808581526020018481526020018381526020013373ffffffffffffffffffffffffffffffffffffffff1681526020016000151581526020014281526020016000815250600e600083815260200190815260200160002060008201518160000155602082015181600101556040820151816002019081611445919061476e565b5060608201518160030160006101000a81548173ffffffffffffffffffffffffffffffffffffffff021916908373ffffffffffffffffffffffffffffffffffffffff16021790555060808201518160030160146101000a81548160ff02191690831515021790555060a0820151816004015560c0820151816005015590505083817f9f07fb2089847eaa89482a475227f9748f6f8670f45c70651a9929c3b2ff0bd48585336040516114f99392919061492b565b60405180910390a39392505050565b6000600860009054906101000a900473ffffffffffffffffffffffffffffffffffffffff16905090565b6000801b61153f81612898565b6115697f0ce23c3e399818cfee81a7ab0880f714e53d7672b08df0fa62f2843416e1ea0983610eac565b5050565b600d600083815260200190815260200160002060050160009054906101000a900460ff166115d0576040517f08c379a00000000000000000000000000000000000000000000000000000000081526004016115c7906148c3565b60405180910390fd5b6115d8611508565b73ffffffffffffffffffffffffffffffffffffffff163373ffffffffffffffffffffffffffffffffffffffff1614806116725750600d600083815260200190815260200160002060030160009054906101000a900473ffffffffffffffffffffffffffffffffffffffff1673ffffffffffffffffffffffffffffffffffffffff163373ffffffffffffffffffffffffffffffffffffffff16145b6116b1576040517f08c379a00000000000000000000000000000000000000000000000000000000081526004016116a8906149b5565b60405180910390fd5b80600d600084815260200190815260200160002060040190816116d4919061476e565b505050565b60006007600084815260200190815260200160002060000160008373ffffffffffffffffffffffffffffffffffffffff1673ffffffffffffffffffffffffffffffffffffffff16815260200190815260200160002060009054906101000a900460ff16905092915050565b60606001805461175390614429565b80601f016020809104026020016040519081016040528092919081815260200182805461177f90614429565b80156117cc5780601f106117a1576101008083540402835291602001916117cc565b820191906000526020600020905b8154815290600101906020018083116117af57829003601f168201915b5050505050905090565b600a5481565b6000801b81565b6117f56117ee612664565b8383612c64565b5050565b611801612b17565b8273ffffffffffffffffffffffffffffffffffffffff1663a9059cbb83836040518363ffffffff1660e01b815260040161183c9291906149d5565b6020604051808303816000875af115801561185b573d6000803e3d6000fd5b505050506040513d601f19601f8201168201806040525081019061187f9190614a13565b50505050565b611890848484610c93565b6118a461189b612664565b85858585612dd3565b50505050565b6118b2612b17565b600073ffffffffffffffffffffffffffffffffffffffff168173ffffffffffffffffffffffffffffffffffffffff1603611921576040517f08c379a000000000000000000000000000000000000000000000000000000000815260040161191890614a8c565b60405180910390fd5b80600960006101000a81548173ffffffffffffffffffffffffffffffffffffffff021916908373ffffffffffffffffffffffffffffffffffffffff16021790555050565b60606119708261259f565b50600060066000848152602001908152602001600020805461199190614429565b80601f01602080910402602001604051908101604052809291908181526020018280546119bd90614429565b8015611a0a5780601f106119df57610100808354040283529160200191611a0a565b820191906000526020600020905b8154815290600101906020018083116119ed57829003601f168201915b505050505090506000611a1b612f84565b90506000815103611a30578192505050611a73565b600082511115611a65578082604051602001611a4d929190614ae8565b60405160208183030381529060405292505050611a73565b611a6e84612f9b565b925050505b919050565b60008060606000806000806000600e60008a81526020019081526020016000206040518060e00160405290816000820154815260200160018201548152602001600282018054611ac790614429565b80601f0160208091040260200160405190810160405280929190818152602001828054611af390614429565b8015611b405780601f10611b1557610100808354040283529160200191611b40565b820191906000526020600020905b815481529060010190602001808311611b2357829003601f168201915b505050505081526020016003820160009054906101000a900473ffffffffffffffffffffffffffffffffffffffff1673ffffffffffffffffffffffffffffffffffffffff1673ffffffffffffffffffffffffffffffffffffffff1681526020016003820160149054906101000a900460ff16151515158152602001600482015481526020016005820154815250509050806000015181602001518260400151836060015184608001518560a001518660c00151975097509750975097509750975050919395979092949650565b6000801b611c1a81612898565b611c447f0ce23c3e399818cfee81a7ab0880f714e53d7672b08df0fa62f2843416e1ea0983611c48565b5050565b611c5182610d95565b611c5a81612898565b611c64838361299e565b50505050565b60007f0ce23c3e399818cfee81a7ab0880f714e53d7672b08df0fa62f2843416e1ea09611c9681612898565b6000600e600088815260200190815260200160002090506000816004015403611cf4576040517f08c379a0000000000000000000000000000000000000000000000000000000008152600401611ceb90614b58565b60405180910390fd5b8060030160149054906101000a900460ff1615611d46576040517f08c379a0000000000000000000000000000000000000000000000000000000008152600401611d3d90614bc4565b60405180910390fd5b60018160030160146101000a81548160ff0219169083151502179055508515611e3c57600c6000815480929190611d7c906148e3565b9190505550600c549250611db48160030160009054906101000a900473ffffffffffffffffffffffffffffffffffffffff1684613004565b600085511115611dc957611dc88386613022565b5b8281600501819055508060030160009054906101000a900473ffffffffffffffffffffffffffffffffffffffff1673ffffffffffffffffffffffffffffffffffffffff1687847fddbf9d9b2b8ec52d81ebdd4358971424e6dcfd1343b0f03b2dceb9c85c168e3560405160405180910390a45b600084111561202a57600073ffffffffffffffffffffffffffffffffffffffff16600960009054906101000a900473ffffffffffffffffffffffffffffffffffffffff1673ffffffffffffffffffffffffffffffffffffffff1603611ed6576040517f08c379a0000000000000000000000000000000000000000000000000000000008152600401611ecd90614c30565b60405180910390fd5b6000600d60008360000154815260200190815260200160002060030160009054906101000a900473ffffffffffffffffffffffffffffffffffffffff169050600960009054906101000a900473ffffffffffffffffffffffffffffffffffffffff1673ffffffffffffffffffffffffffffffffffffffff166340c10f1982876040518363ffffffff1660e01b8152600401611f729291906149d5565b600060405180830381600087803b158015611f8c57600080fd5b505af1158015611fa0573d6000803e3d6000fd5b5050505084600d6000846000015481526020019081526020016000206006016000828254611fce9190614598565b925050819055508073ffffffffffffffffffffffffffffffffffffffff1682600001547f921c08e825069e4d980f75f8c9d39ab505649f98d18f620f19759e16f0e3ba6b876040516120209190613e43565b60405180910390a3505b8060000154877f268daa65823d8fa0335b05c9de4adf451d91e6feee90c955137643b9a98625cf3384600501546040516120659291906149d5565b60405180910390a35050949350505050565b7f0ce23c3e399818cfee81a7ab0880f714e53d7672b08df0fa62f2843416e1ea0981565b6000600560008473ffffffffffffffffffffffffffffffffffffffff1673ffffffffffffffffffffffffffffffffffffffff16815260200190815260200160002060008373ffffffffffffffffffffffffffffffffffffffff1673ffffffffffffffffffffffffffffffffffffffff16815260200190815260200160002060009054906101000a900460ff16905092915050565b60608060008060606000806000600d60008a81526020019081526020016000206040518060e001604052908160008201805461216a90614429565b80601f016020809104026020016040519081016040528092919081815260200182805461219690614429565b80156121e35780601f106121b8576101008083540402835291602001916121e3565b820191906000526020600020905b8154815290600101906020018083116121c657829003601f168201915b505050505081526020016001820180546121fc90614429565b80601f016020809104026020016040519081016040528092919081815260200182805461222890614429565b80156122755780601f1061224a57610100808354040283529160200191612275565b820191906000526020600020905b81548152906001019060200180831161225857829003601f168201915b50505050508152602001600282015481526020016003820160009054906101000a900473ffffffffffffffffffffffffffffffffffffffff1673ffffffffffffffffffffffffffffffffffffffff1673ffffffffffffffffffffffffffffffffffffffff1681526020016004820180546122ee90614429565b80601f016020809104026020016040519081016040528092919081815260200182805461231a90614429565b80156123675780601f1061233c57610100808354040283529160200191612367565b820191906000526020600020905b81548152906001019060200180831161234a57829003601f168201915b505050505081526020016005820160009054906101000a900460ff161515151581526020016006820154815250509050806000015181602001518260400151836060015184608001518560a001518660c00151975097509750975097509750975050919395979092949650565b6123dc612b17565b600073ffffffffffffffffffffffffffffffffffffffff168173ffffffffffffffffffffffffffffffffffffffff160361244e5760006040517f1e4fbdf70000000000000000000000000000000000000000000000000000000081526004016124459190613b66565b60405180910390fd5b61245781612b9e565b50565b3373ffffffffffffffffffffffffffffffffffffffff1661247a8261102f565b73ffffffffffffffffffffffffffffffffffffffff16146124d0576040517f08c379a00000000000000000000000000000000000000000000000000000000081526004016124c7906144dd565b60405180910390fd5b6124db33838361100f565b8173ffffffffffffffffffffffffffffffffffffffff166000827fddbf9d9b2b8ec52d81ebdd4358971424e6dcfd1343b0f03b2dceb9c85c168e3560405160405180910390a45050565b60007f7965db0b000000000000000000000000000000000000000000000000000000007bffffffffffffffffffffffffffffffffffffffffffffffffffffffff1916827bffffffffffffffffffffffffffffffffffffffffffffffffffffffff1916148061259857506125978261307e565b5b9050919050565b6000806125ab836130df565b9050600073ffffffffffffffffffffffffffffffffffffffff168173ffffffffffffffffffffffffffffffffffffffff160361261e57826040517f7e2732890000000000000000000000000000000000000000000000000000000081526004016126159190613e43565b60405180910390fd5b80915050919050565b60006004600083815260200190815260200160002060009054906101000a900473ffffffffffffffffffffffffffffffffffffffff169050919050565b600033905090565b612679838383600161311c565b505050565b60008061268a846130df565b9050600073ffffffffffffffffffffffffffffffffffffffff168373ffffffffffffffffffffffffffffffffffffffff16146126cc576126cb8184866132e1565b5b600073ffffffffffffffffffffffffffffffffffffffff168173ffffffffffffffffffffffffffffffffffffffff161461275d5761270e60008560008061311c565b6001600360008373ffffffffffffffffffffffffffffffffffffffff1673ffffffffffffffffffffffffffffffffffffffff168152602001908152602001600020600082825403925050819055505b600073ffffffffffffffffffffffffffffffffffffffff168573ffffffffffffffffffffffffffffffffffffffff16146127e0576001600360008773ffffffffffffffffffffffffffffffffffffffff1673ffffffffffffffffffffffffffffffffffffffff168152602001908152602001600020600082825401925050819055505b846002600086815260200190815260200160002060006101000a81548173ffffffffffffffffffffffffffffffffffffffff021916908373ffffffffffffffffffffffffffffffffffffffff160217905550838573ffffffffffffffffffffffffffffffffffffffff168273ffffffffffffffffffffffffffffffffffffffff167fddf252ad1be2c89b69c2b068fc378daa952ba7f163c4a11628f55a4df523b3ef60405160405180910390a4809150509392505050565b6128a9816128a4612664565b6133a5565b50565b60006128b883836116d9565b6129935760016007600085815260200190815260200160002060000160008473ffffffffffffffffffffffffffffffffffffffff1673ffffffffffffffffffffffffffffffffffffffff16815260200190815260200160002060006101000a81548160ff021916908315150217905550612930612664565b73ffffffffffffffffffffffffffffffffffffffff168273ffffffffffffffffffffffffffffffffffffffff16847f2f8788117e7eff1d82e926ec794901d17c78024a50270940304540a733656f0d60405160405180910390a460019050612998565b600090505b92915050565b60006129aa83836116d9565b15612a865760006007600085815260200190815260200160002060000160008473ffffffffffffffffffffffffffffffffffffffff1673ffffffffffffffffffffffffffffffffffffffff16815260200190815260200160002060006101000a81548160ff021916908315150217905550612a23612664565b73ffffffffffffffffffffffffffffffffffffffff168273ffffffffffffffffffffffffffffffffffffffff16847ff6391f5c32d9c69d2a47ea670b442974b53935d1edc7fd64eb21e047a839171b60405160405180910390a460019050612a8b565b600090505b92915050565b6000612aa0600083600061267e565b9050600073ffffffffffffffffffffffffffffffffffffffff168173ffffffffffffffffffffffffffffffffffffffff1603612b1357816040517f7e273289000000000000000000000000000000000000000000000000000000008152600401612b0a9190613e43565b60405180910390fd5b5050565b612b1f612664565b73ffffffffffffffffffffffffffffffffffffffff16612b3d611508565b73ffffffffffffffffffffffffffffffffffffffff1614612b9c57612b60612664565b6040517f118cdaa7000000000000000000000000000000000000000000000000000000008152600401612b939190613b66565b60405180910390fd5b565b6000600860009054906101000a900473ffffffffffffffffffffffffffffffffffffffff16905081600860006101000a81548173ffffffffffffffffffffffffffffffffffffffff021916908373ffffffffffffffffffffffffffffffffffffffff1602179055508173ffffffffffffffffffffffffffffffffffffffff168173ffffffffffffffffffffffffffffffffffffffff167f8be0079c531659141344cd1fd0a4f28419497f9722a3daafe3b4186f6b6457e060405160405180910390a35050565b600073ffffffffffffffffffffffffffffffffffffffff168273ffffffffffffffffffffffffffffffffffffffff1603612cd557816040517f5b08ba18000000000000000000000000000000000000000000000000000000008152600401612ccc9190613b66565b60405180910390fd5b80600560008573ffffffffffffffffffffffffffffffffffffffff1673ffffffffffffffffffffffffffffffffffffffff16815260200190815260200160002060008473ffffffffffffffffffffffffffffffffffffffff1673ffffffffffffffffffffffffffffffffffffffff16815260200190815260200160002060006101000a81548160ff0219169083151502179055508173ffffffffffffffffffffffffffffffffffffffff168373ffffffffffffffffffffffffffffffffffffffff167f17307eab39ab6107e8899845ad3d59bd9653f200f220920489ca2b5937696c3183604051612dc691906139f5565b60405180910390a3505050565b60008373ffffffffffffffffffffffffffffffffffffffff163b1115612f7d578273ffffffffffffffffffffffffffffffffffffffff1663150b7a02868685856040518563ffffffff1660e01b8152600401612e329493929190614ca5565b6020604051808303816000875af1925050508015612e6e57506040513d601f19601f82011682018060405250810190612e6b9190614d06565b60015b612ef2573d8060008114612e9e576040519150601f19603f3d011682016040523d82523d6000602084013e612ea3565b606091505b506000815103612eea57836040517f64a0ae92000000000000000000000000000000000000000000000000000000008152600401612ee19190613b66565b60405180910390fd5b805160208201fd5b63150b7a0260e01b7bffffffffffffffffffffffffffffffffffffffffffffffffffffffff1916817bffffffffffffffffffffffffffffffffffffffffffffffffffffffff191614612f7b57836040517f64a0ae92000000000000000000000000000000000000000000000000000000008152600401612f729190613b66565b60405180910390fd5b505b5050505050565b606060405180602001604052806000815250905090565b6060612fa68261259f565b506000612fb1612f84565b90506000815111612fd15760405180602001604052806000815250612ffc565b80612fdb846133f6565b604051602001612fec929190614ae8565b6040516020818303038152906040525b915050919050565b61301e8282604051806020016040528060008152506134c4565b5050565b80600660008481526020019081526020016000209081613042919061476e565b507ff8e1a15aba9398e019f0b49df1a4fde98ee17ae345cb5f6b5e2c27f5033e8ce7826040516130729190613e43565b60405180910390a15050565b6000634906490660e01b7bffffffffffffffffffffffffffffffffffffffffffffffffffffffff1916827bffffffffffffffffffffffffffffffffffffffffffffffffffffffff191614806130d857506130d7826134e8565b5b9050919050565b60006002600083815260200190815260200160002060009054906101000a900473ffffffffffffffffffffffffffffffffffffffff169050919050565b80806131555750600073ffffffffffffffffffffffffffffffffffffffff168273ffffffffffffffffffffffffffffffffffffffff1614155b156132895760006131658461259f565b9050600073ffffffffffffffffffffffffffffffffffffffff168373ffffffffffffffffffffffffffffffffffffffff16141580156131d057508273ffffffffffffffffffffffffffffffffffffffff168173ffffffffffffffffffffffffffffffffffffffff1614155b80156131e357506131e1818461209b565b155b1561322557826040517fa9fbf51f00000000000000000000000000000000000000000000000000000000815260040161321c9190613b66565b60405180910390fd5b811561328757838573ffffffffffffffffffffffffffffffffffffffff168273ffffffffffffffffffffffffffffffffffffffff167f8c5be1e5ebec7d5bd14f71427d1e84f3dd0314c0f7b2291e5b200ac8c7c3b92560405160405180910390a45b505b836004600085815260200190815260200160002060006101000a81548173ffffffffffffffffffffffffffffffffffffffff021916908373ffffffffffffffffffffffffffffffffffffffff16021790555050505050565b6132ec8383836135ca565b6133a057600073ffffffffffffffffffffffffffffffffffffffff168373ffffffffffffffffffffffffffffffffffffffff160361336157806040517f7e2732890000000000000000000000000000000000000000000000000000000081526004016133589190613e43565b60405180910390fd5b81816040517f177e802f0000000000000000000000000000000000000000000000000000000081526004016133979291906149d5565b60405180910390fd5b505050565b6133af82826116d9565b6133f25780826040517fe2517d3f0000000000000000000000000000000000000000000000000000000081526004016133e9929190614d33565b60405180910390fd5b5050565b6060600060016134058461368b565b01905060008167ffffffffffffffff81111561342457613423613e68565b5b6040519080825280601f01601f1916602001820160405280156134565781602001600182028036833780820191505090505b509050600082602083010190505b6001156134b9578080600190039150507f3031323334353637383961626364656600000000000000000000000000000000600a86061a8153600a85816134ad576134ac614d5c565b5b04945060008503613464575b819350505050919050565b6134ce83836137de565b6134e36134d9612664565b6000858585612dd3565b505050565b60007f80ac58cd000000000000000000000000000000000000000000000000000000007bffffffffffffffffffffffffffffffffffffffffffffffffffffffff1916827bffffffffffffffffffffffffffffffffffffffffffffffffffffffff191614806135b357507f5b5e139f000000000000000000000000000000000000000000000000000000007bffffffffffffffffffffffffffffffffffffffffffffffffffffffff1916827bffffffffffffffffffffffffffffffffffffffffffffffffffffffff1916145b806135c357506135c2826138d7565b5b9050919050565b60008073ffffffffffffffffffffffffffffffffffffffff168373ffffffffffffffffffffffffffffffffffffffff161415801561368257508273ffffffffffffffffffffffffffffffffffffffff168473ffffffffffffffffffffffffffffffffffffffff1614806136435750613642848461209b565b5b8061368157508273ffffffffffffffffffffffffffffffffffffffff1661366983612627565b73ffffffffffffffffffffffffffffffffffffffff16145b5b90509392505050565b600080600090507a184f03e93ff9f4daa797ed6e38ed64bf6a1f01000000000000000083106136e9577a184f03e93ff9f4daa797ed6e38ed64bf6a1f01000000000000000083816136df576136de614d5c565b5b0492506040810190505b6d04ee2d6d415b85acef81000000008310613726576d04ee2d6d415b85acef8100000000838161371c5761371b614d5c565b5b0492506020810190505b662386f26fc10000831061375557662386f26fc10000838161374b5761374a614d5c565b5b0492506010810190505b6305f5e100831061377e576305f5e100838161377457613773614d5c565b5b0492506008810190505b61271083106137a357612710838161379957613798614d5c565b5b0492506004810190505b606483106137c657606483816137bc576137bb614d5c565b5b0492506002810190505b600a83106137d5576001810190505b80915050919050565b600073ffffffffffffffffffffffffffffffffffffffff168273ffffffffffffffffffffffffffffffffffffffff16036138505760006040517f64a0ae920000000000000000000000000000000000000000000000000000000081526004016138479190613b66565b60405180910390fd5b600061385e8383600061267e565b9050600073ffffffffffffffffffffffffffffffffffffffff168173ffffffffffffffffffffffffffffffffffffffff16146138d25760006040517f73c6ac6e0000000000000000000000000000000000000000000000000000000081526004016138c99190613b66565b60405180910390fd5b505050565b60007f01ffc9a7000000000000000000000000000000000000000000000000000000007bffffffffffffffffffffffffffffffffffffffffffffffffffffffff1916827bffffffffffffffffffffffffffffffffffffffffffffffffffffffff1916149050919050565b6000604051905090565b600080fd5b600080fd5b60007fffffffff0000000000000000000000000000000000000000000000000000000082169050919050565b61398a81613955565b811461399557600080fd5b50565b6000813590506139a781613981565b92915050565b6000602082840312156139c3576139c261394b565b5b60006139d184828501613998565b91505092915050565b60008115159050919050565b6139ef816139da565b82525050565b6000602082019050613a0a60008301846139e6565b92915050565b600081519050919050565b600082825260208201905092915050565b60005b83811015613a4a578082015181840152602081019050613a2f565b60008484015250505050565b6000601f19601f8301169050919050565b6000613a7282613a10565b613a7c8185613a1b565b9350613a8c818560208601613a2c565b613a9581613a56565b840191505092915050565b60006020820190508181036000830152613aba8184613a67565b905092915050565b6000819050919050565b613ad581613ac2565b8114613ae057600080fd5b50565b600081359050613af281613acc565b92915050565b600060208284031215613b0e57613b0d61394b565b5b6000613b1c84828501613ae3565b91505092915050565b600073ffffffffffffffffffffffffffffffffffffffff82169050919050565b6000613b5082613b25565b9050919050565b613b6081613b45565b82525050565b6000602082019050613b7b6000830184613b57565b92915050565b613b8a81613b45565b8114613b9557600080fd5b50565b600081359050613ba781613b81565b92915050565b60008060408385031215613bc457613bc361394b565b5b6000613bd285828601613b98565b9250506020613be385828601613ae3565b9150509250929050565b613bf681613ac2565b82525050565b600060e0820190508181036000830152613c16818a613a67565b90508181036020830152613c2a8189613a67565b9050613c396040830188613bed565b613c466060830187613b57565b8181036080830152613c588186613a67565b9050613c6760a08301856139e6565b613c7460c0830184613bed565b98975050505050505050565b600080600060608486031215613c9957613c9861394b565b5b6000613ca786828701613b98565b9350506020613cb886828701613b98565b9250506040613cc986828701613ae3565b9150509250925092565b6000819050919050565b613ce681613cd3565b8114613cf157600080fd5b50565b600081359050613d0381613cdd565b92915050565b600060208284031215613d1f57613d1e61394b565b5b6000613d2d84828501613cf4565b91505092915050565b613d3f81613cd3565b82525050565b6000602082019050613d5a6000830184613d36565b92915050565b600060e082019050613d75600083018a613bed565b613d826020830189613d36565b8181036040830152613d948188613a67565b9050613da36060830187613b57565b613db060808301866139e6565b613dbd60a0830185613bed565b613dca60c0830184613bed565b98975050505050505050565b60008060408385031215613ded57613dec61394b565b5b6000613dfb85828601613cf4565b9250506020613e0c85828601613b98565b9150509250929050565b600060208284031215613e2c57613e2b61394b565b5b6000613e3a84828501613b98565b91505092915050565b6000602082019050613e586000830184613bed565b92915050565b600080fd5b600080fd5b7f4e487b7100000000000000000000000000000000000000000000000000000000600052604160045260246000fd5b613ea082613a56565b810181811067ffffffffffffffff82111715613ebf57613ebe613e68565b5b80604052505050565b6000613ed2613941565b9050613ede8282613e97565b919050565b600067ffffffffffffffff821115613efe57613efd613e68565b5b613f0782613a56565b9050602081019050919050565b82818337600083830152505050565b6000613f36613f3184613ee3565b613ec8565b905082815260208101848484011115613f5257613f51613e63565b5b613f5d848285613f14565b509392505050565b600082601f830112613f7a57613f79613e5e565b5b8135613f8a848260208601613f23565b91505092915050565b600080600080600060a08688031215613faf57613fae61394b565b5b600086013567ffffffffffffffff811115613fcd57613fcc613950565b5b613fd988828901613f65565b955050602086013567ffffffffffffffff811115613ffa57613ff9613950565b5b61400688828901613f65565b945050604061401788828901613ae3565b935050606061402888828901613b98565b925050608086013567ffffffffffffffff81111561404957614048613950565b5b61405588828901613f65565b9150509295509295909350565b6000819050919050565b600061408761408261407d84613b25565b614062565b613b25565b9050919050565b60006140998261406c565b9050919050565b60006140ab8261408e565b9050919050565b6140bb816140a0565b82525050565b60006020820190506140d660008301846140b2565b92915050565b6000806000606084860312156140f5576140f461394b565b5b600061410386828701613ae3565b935050602061411486828701613cf4565b925050604084013567ffffffffffffffff81111561413557614134613950565b5b61414186828701613f65565b9150509250925092565b600080604083850312156141625761416161394b565b5b600061417085828601613ae3565b925050602083013567ffffffffffffffff81111561419157614190613950565b5b61419d85828601613f65565b9150509250929050565b6141b0816139da565b81146141bb57600080fd5b50565b6000813590506141cd816141a7565b92915050565b600080604083850312156141ea576141e961394b565b5b60006141f885828601613b98565b9250506020614209858286016141be565b9150509250929050565b600067ffffffffffffffff82111561422e5761422d613e68565b5b61423782613a56565b9050602081019050919050565b600061425761425284614213565b613ec8565b90508281526020810184848401111561427357614272613e63565b5b61427e848285613f14565b509392505050565b600082601f83011261429b5761429a613e5e565b5b81356142ab848260208601614244565b91505092915050565b600080600080608085870312156142ce576142cd61394b565b5b60006142dc87828801613b98565b94505060206142ed87828801613b98565b93505060406142fe87828801613ae3565b925050606085013567ffffffffffffffff81111561431f5761431e613950565b5b61432b87828801614286565b91505092959194509250565b600080600080608085870312156143515761435061394b565b5b600061435f87828801613ae3565b9450506020614370878288016141be565b935050604085013567ffffffffffffffff81111561439157614390613950565b5b61439d87828801613f65565b92505060606143ae87828801613ae3565b91505092959194509250565b600080604083850312156143d1576143d061394b565b5b60006143df85828601613b98565b92505060206143f085828601613b98565b9150509250929050565b7f4e487b7100000000000000000000000000000000000000000000000000000000600052602260045260246000fd5b6000600282049050600182168061444157607f821691505b602082108103614454576144536143fa565b5b50919050565b600060608201905061446f6000830186613b57565b61447c6020830185613bed565b6144896040830184613b57565b949350505050565b7f4e6f7420746f6b656e206f776e65720000000000000000000000000000000000600082015250565b60006144c7600f83613a1b565b91506144d282614491565b602082019050919050565b600060208201905081810360008301526144f6816144ba565b9050919050565b7f4f776e6572206164647265737320726571756972656400000000000000000000600082015250565b6000614533601683613a1b565b915061453e826144fd565b602082019050919050565b6000602082019050818103600083015261456281614526565b9050919050565b7f4e487b7100000000000000000000000000000000000000000000000000000000600052601160045260246000fd5b60006145a382613ac2565b91506145ae83613ac2565b92508282019050808211156145c6576145c5614569565b5b92915050565b60008190508160005260206000209050919050565b60006020601f8301049050919050565b600082821b905092915050565b60006008830261462e7fffffffffffffffffffffffffffffffffffffffffffffffffffffffffffffffff826145f1565b61463886836145f1565b95508019841693508086168417925050509392505050565b600061466b61466661466184613ac2565b614062565b613ac2565b9050919050565b6000819050919050565b61468583614650565b61469961469182614672565b8484546145fe565b825550505050565b600090565b6146ae6146a1565b6146b981848461467c565b505050565b5b818110156146dd576146d26000826146a6565b6001810190506146bf565b5050565b601f821115614722576146f3816145cc565b6146fc846145e1565b8101602085101561470b578190505b61471f614717856145e1565b8301826146be565b50505b505050565b600082821c905092915050565b600061474560001984600802614727565b1980831691505092915050565b600061475e8383614734565b9150826002028217905092915050565b61477782613a10565b67ffffffffffffffff8111156147905761478f613e68565b5b61479a8254614429565b6147a58282856146e1565b600060209050601f8311600181146147d857600084156147c6578287015190505b6147d08582614752565b865550614838565b601f1984166147e6866145cc565b60005b8281101561480e578489015182556001820191506020850194506020810190506147e9565b8683101561482b5784890151614827601f891682614734565b8355505b6001600288020188555050505b505050505050565b6000604082019050818103600083015261485a8185613a67565b9050818103602083015261486e8184613a67565b90509392505050565b7f50726f6a656374206e6f7420666f756e64000000000000000000000000000000600082015250565b60006148ad601183613a1b565b91506148b882614877565b602082019050919050565b600060208201905081810360008301526148dc816148a0565b9050919050565b60006148ee82613ac2565b91507fffffffffffffffffffffffffffffffffffffffffffffffffffffffffffffffff82036149205761491f614569565b5b600182019050919050565b60006060820190506149406000830186613d36565b81810360208301526149528185613a67565b90506149616040830184613b57565b949350505050565b7f4f6e6c79206f776e6572206f722070726f6a656374206f776e65720000000000600082015250565b600061499f601b83613a1b565b91506149aa82614969565b602082019050919050565b600060208201905081810360008301526149ce81614992565b9050919050565b60006040820190506149ea6000830185613b57565b6149f76020830184613bed565b9392505050565b600081519050614a0d816141a7565b92915050565b600060208284031215614a2957614a2861394b565b5b6000614a37848285016149fe565b91505092915050565b7f496e76616c696420746f6b656e20616464726573730000000000000000000000600082015250565b6000614a76601583613a1b565b9150614a8182614a40565b602082019050919050565b60006020820190508181036000830152614aa581614a69565b9050919050565b600081905092915050565b6000614ac282613a10565b614acc8185614aac565b9350614adc818560208601613a2c565b80840191505092915050565b6000614af48285614ab7565b9150614b008284614ab7565b91508190509392505050565b7f45766964656e6365206e6f7420666f756e640000000000000000000000000000600082015250565b6000614b42601283613a1b565b9150614b4d82614b0c565b602082019050919050565b60006020820190508181036000830152614b7181614b35565b9050919050565b7f416c726561647920766572696669656400000000000000000000000000000000600082015250565b6000614bae601083613a1b565b9150614bb982614b78565b602082019050919050565b60006020820190508181036000830152614bdd81614ba1565b9050919050565b7f436172626f6e20746f6b656e206e6f7420736574000000000000000000000000600082015250565b6000614c1a601483613a1b565b9150614c2582614be4565b602082019050919050565b60006020820190508181036000830152614c4981614c0d565b9050919050565b600081519050919050565b600082825260208201905092915050565b6000614c7782614c50565b614c818185614c5b565b9350614c91818560208601613a2c565b614c9a81613a56565b840191505092915050565b6000608082019050614cba6000830187613b57565b614cc76020830186613b57565b614cd46040830185613bed565b8181036060830152614ce68184614c6c565b905095945050505050565b600081519050614d0081613981565b92915050565b600060208284031215614d1c57614d1b61394b565b5b6000614d2a84828501614cf1565b91505092915050565b6000604082019050614d486000830185613b57565b614d556020830184613d36565b9392505050565b7f4e487b7100000000000000000000000000000000000000000000000000000000600052601260045260246000fdfea2646970667358221220102da1515e41f8706d0b4109eea5ccd35b073d67c40f4928bd9e0f85bebb99b964736f6c634300081c0033",
  "linkReferences": {},
  "deployedLinkReferences": {}
}